{
  "_format": "hh-sol-artifact-1",
  "contractName": "XNS",
  "sourceName": "contracts/Domains.sol",
  "abi": [
    {
      "inputs": [
        {
          "internalType": "string",
          "name": "_tld",
          "type": "string"
        }
      ],
      "stateMutability": "payable",
      "type": "constructor"
    },
    {
      "anonymous": false,
      "inputs": [
        {
          "indexed": true,
          "internalType": "address",
          "name": "owner",
          "type": "address"
        },
        {
          "indexed": true,
          "internalType": "address",
          "name": "approved",
          "type": "address"
        },
        {
          "indexed": true,
          "internalType": "uint256",
          "name": "tokenId",
          "type": "uint256"
        }
      ],
      "name": "Approval",
      "type": "event"
    },
    {
      "anonymous": false,
      "inputs": [
        {
          "indexed": true,
          "internalType": "address",
          "name": "owner",
          "type": "address"
        },
        {
          "indexed": true,
          "internalType": "address",
          "name": "operator",
          "type": "address"
        },
        {
          "indexed": false,
          "internalType": "bool",
          "name": "approved",
          "type": "bool"
        }
      ],
      "name": "ApprovalForAll",
      "type": "event"
    },
    {
      "anonymous": false,
      "inputs": [
        {
          "indexed": true,
          "internalType": "address",
          "name": "from",
          "type": "address"
        },
        {
          "indexed": true,
          "internalType": "address",
          "name": "to",
          "type": "address"
        },
        {
          "indexed": true,
          "internalType": "uint256",
          "name": "tokenId",
          "type": "uint256"
        }
      ],
      "name": "Transfer",
      "type": "event"
    },
    {
      "inputs": [
        {
          "internalType": "address",
          "name": "to",
          "type": "address"
        },
        {
          "internalType": "uint256",
          "name": "tokenId",
          "type": "uint256"
        }
      ],
      "name": "approve",
      "outputs": [],
      "stateMutability": "nonpayable",
      "type": "function"
    },
    {
      "inputs": [
        {
          "internalType": "address",
          "name": "owner",
          "type": "address"
        }
      ],
      "name": "balanceOf",
      "outputs": [
        {
          "internalType": "uint256",
          "name": "",
          "type": "uint256"
        }
      ],
      "stateMutability": "view",
      "type": "function"
    },
    {
      "inputs": [
        {
          "internalType": "string",
          "name": "",
          "type": "string"
        }
      ],
      "name": "domains",
      "outputs": [
        {
          "internalType": "address",
          "name": "",
          "type": "address"
        }
      ],
      "stateMutability": "view",
      "type": "function"
    },
    {
      "inputs": [
        {
          "internalType": "uint256",
          "name": "tokenId",
          "type": "uint256"
        }
      ],
      "name": "getApproved",
      "outputs": [
        {
          "internalType": "address",
          "name": "",
          "type": "address"
        }
      ],
      "stateMutability": "view",
      "type": "function"
    },
    {
      "inputs": [
        {
          "internalType": "string",
          "name": "name",
          "type": "string"
        }
      ],
      "name": "getOwner",
      "outputs": [
        {
          "internalType": "address",
          "name": "",
          "type": "address"
        }
      ],
      "stateMutability": "view",
      "type": "function"
    },
    {
      "inputs": [
        {
          "internalType": "string",
          "name": "name",
          "type": "string"
        }
      ],
      "name": "getRecord",
      "outputs": [
        {
          "internalType": "string",
          "name": "",
          "type": "string"
        }
      ],
      "stateMutability": "view",
      "type": "function"
    },
    {
      "inputs": [
        {
          "internalType": "address",
          "name": "owner",
          "type": "address"
        },
        {
          "internalType": "address",
          "name": "operator",
          "type": "address"
        }
      ],
      "name": "isApprovedForAll",
      "outputs": [
        {
          "internalType": "bool",
          "name": "",
          "type": "bool"
        }
      ],
      "stateMutability": "view",
      "type": "function"
    },
    {
      "inputs": [],
      "name": "name",
      "outputs": [
        {
          "internalType": "string",
          "name": "",
          "type": "string"
        }
      ],
      "stateMutability": "view",
      "type": "function"
    },
    {
      "inputs": [
        {
          "internalType": "uint256",
          "name": "tokenId",
          "type": "uint256"
        }
      ],
      "name": "ownerOf",
      "outputs": [
        {
          "internalType": "address",
          "name": "",
          "type": "address"
        }
      ],
      "stateMutability": "view",
      "type": "function"
    },
    {
      "inputs": [
        {
          "internalType": "string",
          "name": "name",
          "type": "string"
        }
      ],
      "name": "price",
      "outputs": [
        {
          "internalType": "uint256",
          "name": "",
          "type": "uint256"
        }
      ],
      "stateMutability": "pure",
      "type": "function"
    },
    {
      "inputs": [
        {
          "internalType": "string",
          "name": "",
          "type": "string"
        }
      ],
      "name": "records",
      "outputs": [
        {
          "internalType": "string",
          "name": "",
          "type": "string"
        }
      ],
      "stateMutability": "view",
      "type": "function"
    },
    {
      "inputs": [
        {
          "internalType": "string",
          "name": "name",
          "type": "string"
        }
      ],
      "name": "register",
      "outputs": [],
      "stateMutability": "payable",
      "type": "function"
    },
    {
      "inputs": [
        {
          "internalType": "address",
          "name": "from",
          "type": "address"
        },
        {
          "internalType": "address",
          "name": "to",
          "type": "address"
        },
        {
          "internalType": "uint256",
          "name": "tokenId",
          "type": "uint256"
        }
      ],
      "name": "safeTransferFrom",
      "outputs": [],
      "stateMutability": "nonpayable",
      "type": "function"
    },
    {
      "inputs": [
        {
          "internalType": "address",
          "name": "from",
          "type": "address"
        },
        {
          "internalType": "address",
          "name": "to",
          "type": "address"
        },
        {
          "internalType": "uint256",
          "name": "tokenId",
          "type": "uint256"
        },
        {
          "internalType": "bytes",
          "name": "_data",
          "type": "bytes"
        }
      ],
      "name": "safeTransferFrom",
      "outputs": [],
      "stateMutability": "nonpayable",
      "type": "function"
    },
    {
      "inputs": [
        {
          "internalType": "address",
          "name": "operator",
          "type": "address"
        },
        {
          "internalType": "bool",
          "name": "approved",
          "type": "bool"
        }
      ],
      "name": "setApprovalForAll",
      "outputs": [],
      "stateMutability": "nonpayable",
      "type": "function"
    },
    {
      "inputs": [
        {
          "internalType": "string",
          "name": "name",
          "type": "string"
        },
        {
          "internalType": "string",
          "name": "record",
          "type": "string"
        }
      ],
      "name": "setRecord",
      "outputs": [],
      "stateMutability": "nonpayable",
      "type": "function"
    },
    {
      "inputs": [
        {
          "internalType": "bytes4",
          "name": "interfaceId",
          "type": "bytes4"
        }
      ],
      "name": "supportsInterface",
      "outputs": [
        {
          "internalType": "bool",
          "name": "",
          "type": "bool"
        }
      ],
      "stateMutability": "view",
      "type": "function"
    },
    {
      "inputs": [],
      "name": "symbol",
      "outputs": [
        {
          "internalType": "string",
          "name": "",
          "type": "string"
        }
      ],
      "stateMutability": "view",
      "type": "function"
    },
    {
      "inputs": [],
      "name": "tld",
      "outputs": [
        {
          "internalType": "string",
          "name": "",
          "type": "string"
        }
      ],
      "stateMutability": "view",
      "type": "function"
    },
    {
      "inputs": [
        {
          "internalType": "uint256",
          "name": "tokenId",
          "type": "uint256"
        }
      ],
      "name": "tokenURI",
      "outputs": [
        {
          "internalType": "string",
          "name": "",
          "type": "string"
        }
      ],
      "stateMutability": "view",
      "type": "function"
    },
    {
      "inputs": [
        {
          "internalType": "address",
          "name": "from",
          "type": "address"
        },
        {
          "internalType": "address",
          "name": "to",
          "type": "address"
        },
        {
          "internalType": "uint256",
          "name": "tokenId",
          "type": "uint256"
        }
      ],
      "name": "transferFrom",
      "outputs": [],
      "stateMutability": "nonpayable",
      "type": "function"
    }
  ],
  "bytecode": "0x6080604052604051806103e001604052806103b6815260200162004a836103b69139600990805190602001906200003892919062000287565b506040518060400160405280600d81526020017f3c2f746578743e3c2f7376673e00000000000000000000000000000000000000815250600a90805190602001906200008692919062000287565b5060405162004e3938038062004e398339818101604052810190620000ac9190620004d4565b6040518060400160405280601381526020017f4d6574656f72204e616d652053657276696365000000000000000000000000008152506040518060400160405280600381526020017f4d4e53000000000000000000000000000000000000000000000000000000000081525081600090805190602001906200013092919062000287565b5080600190805190602001906200014992919062000287565b50505080600890805190602001906200016492919062000287565b50620001b16040518060400160405280601f81526020017f257320646f6d61696e206e616d652073657276696365206465706c6f7965640081525082620001b860201b620015831760201c565b5062000622565b6200025a8282604051602401620001d192919062000582565b6040516020818303038152906040527f4b5c4277000000000000000000000000000000000000000000000000000000007bffffffffffffffffffffffffffffffffffffffffffffffffffffffff19166020820180517bffffffffffffffffffffffffffffffffffffffffffffffffffffffff83818316178352505050506200025e60201b60201c565b5050565b60008151905060006a636f6e736f6c652e6c6f679050602083016000808483855afa5050505050565b8280546200029590620005ec565b90600052602060002090601f016020900481019282620002b9576000855562000305565b82601f10620002d457805160ff191683800117855562000305565b8280016001018555821562000305579182015b8281111562000304578251825591602001919060010190620002e7565b5b50905062000314919062000318565b5090565b5b808211156200033357600081600090555060010162000319565b5090565b6000604051905090565b600080fd5b600080fd5b600080fd5b600080fd5b6000601f19601f8301169050919050565b7f4e487b7100000000000000000000000000000000000000000000000000000000600052604160045260246000fd5b620003a08262000355565b810181811067ffffffffffffffff82111715620003c257620003c162000366565b5b80604052505050565b6000620003d762000337565b9050620003e5828262000395565b919050565b600067ffffffffffffffff82111562000408576200040762000366565b5b620004138262000355565b9050602081019050919050565b60005b838110156200044057808201518184015260208101905062000423565b8381111562000450576000848401525b50505050565b60006200046d6200046784620003ea565b620003cb565b9050828152602081018484840111156200048c576200048b62000350565b5b6200049984828562000420565b509392505050565b600082601f830112620004b957620004b86200034b565b5b8151620004cb84826020860162000456565b91505092915050565b600060208284031215620004ed57620004ec62000341565b5b600082015167ffffffffffffffff8111156200050e576200050d62000346565b5b6200051c84828501620004a1565b91505092915050565b600081519050919050565b600082825260208201905092915050565b60006200054e8262000525565b6200055a818562000530565b93506200056c81856020860162000420565b620005778162000355565b840191505092915050565b600060408201905081810360008301526200059e818562000541565b90508181036020830152620005b4818462000541565b90509392505050565b7f4e487b7100000000000000000000000000000000000000000000000000000000600052602260045260246000fd5b600060028204905060018216806200060557607f821691505b602082108114156200061c576200061b620005bd565b5b50919050565b61445180620006326000396000f3fe60806040526004361061012a5760003560e01c8063541e771d116100ab578063b88d4fde1161006f578063b88d4fde1461043c578063c1880a9814610465578063c87b56dd1461048e578063e985e9c5146104cb578063f2c298be14610508578063fe2c6198146105245761012a565b8063541e771d146103315780636352211e1461036e57806370a08231146103ab57806395d89b41146103e8578063a22cb465146104135761012a565b806323b872dd116100f257806323b872dd1461023a57806326449235146102635780632d551432146102a057806342842e0e146102cb5780634aaf4a12146102f45761012a565b806301ffc9a71461012f57806306fdde031461016c578063081812fc14610197578063095ea7b3146101d457806311dd8845146101fd575b600080fd5b34801561013b57600080fd5b5061015660048036038101906101519190612a52565b610561565b6040516101639190612a9a565b60405180910390f35b34801561017857600080fd5b50610181610643565b60405161018e9190612b4e565b60405180910390f35b3480156101a357600080fd5b506101be60048036038101906101b99190612ba6565b6106d5565b6040516101cb9190612c14565b60405180910390f35b3480156101e057600080fd5b506101fb60048036038101906101f69190612c5b565b61075a565b005b34801561020957600080fd5b50610224600480360381019061021f9190612d00565b610872565b6040516102319190612b4e565b60405180910390f35b34801561024657600080fd5b50610261600480360381019061025c9190612d4d565b610925565b005b34801561026f57600080fd5b5061028a60048036038101906102859190612ed0565b610985565b6040516102979190612c14565b60405180910390f35b3480156102ac57600080fd5b506102b56109ce565b6040516102c29190612b4e565b60405180910390f35b3480156102d757600080fd5b506102f260048036038101906102ed9190612d4d565b610a5c565b005b34801561030057600080fd5b5061031b60048036038101906103169190612d00565b610a7c565b6040516103289190612c14565b60405180910390f35b34801561033d57600080fd5b5061035860048036038101906103539190612ed0565b610ac7565b6040516103659190612b4e565b60405180910390f35b34801561037a57600080fd5b5061039560048036038101906103909190612ba6565b610b7d565b6040516103a29190612c14565b60405180910390f35b3480156103b757600080fd5b506103d260048036038101906103cd9190612f19565b610c2f565b6040516103df9190612f55565b60405180910390f35b3480156103f457600080fd5b506103fd610ce7565b60405161040a9190612b4e565b60405180910390f35b34801561041f57600080fd5b5061043a60048036038101906104359190612f9c565b610d79565b005b34801561044857600080fd5b50610463600480360381019061045e919061307d565b610d8f565b005b34801561047157600080fd5b5061048c60048036038101906104879190613100565b610df1565b005b34801561049a57600080fd5b506104b560048036038101906104b09190612ba6565b610e9f565b6040516104c29190612b4e565b60405180910390f35b3480156104d757600080fd5b506104f260048036038101906104ed9190613181565b610ff1565b6040516104ff9190612a9a565b60405180910390f35b610522600480360381019061051d9190612d00565b611085565b005b34801561053057600080fd5b5061054b60048036038101906105469190612d00565b6114e0565b6040516105589190612f55565b60405180910390f35b60007f80ac58cd000000000000000000000000000000000000000000000000000000007bffffffffffffffffffffffffffffffffffffffffffffffffffffffff1916827bffffffffffffffffffffffffffffffffffffffffffffffffffffffff1916148061062c57507f5b5e139f000000000000000000000000000000000000000000000000000000007bffffffffffffffffffffffffffffffffffffffffffffffffffffffff1916827bffffffffffffffffffffffffffffffffffffffffffffffffffffffff1916145b8061063c575061063b8261161f565b5b9050919050565b606060008054610652906131f0565b80601f016020809104026020016040519081016040528092919081815260200182805461067e906131f0565b80156106cb5780601f106106a0576101008083540402835291602001916106cb565b820191906000526020600020905b8154815290600101906020018083116106ae57829003601f168201915b5050505050905090565b60006106e082611689565b61071f576040517f08c379a000000000000000000000000000000000000000000000000000000000815260040161071690613294565b60405180910390fd5b6004600083815260200190815260200160002060009054906101000a900473ffffffffffffffffffffffffffffffffffffffff169050919050565b600061076582610b7d565b90508073ffffffffffffffffffffffffffffffffffffffff168373ffffffffffffffffffffffffffffffffffffffff1614156107d6576040517f08c379a00000000000000000000000000000000000000000000000000000000081526004016107cd90613326565b60405180910390fd5b8073ffffffffffffffffffffffffffffffffffffffff166107f56116f5565b73ffffffffffffffffffffffffffffffffffffffff16148061082457506108238161081e6116f5565b610ff1565b5b610863576040517f08c379a000000000000000000000000000000000000000000000000000000000815260040161085a906133b8565b60405180910390fd5b61086d83836116fd565b505050565b6060600c8383604051610886929190613408565b9081526020016040518091039020805461089f906131f0565b80601f01602080910402602001604051908101604052809291908181526020018280546108cb906131f0565b80156109185780601f106108ed57610100808354040283529160200191610918565b820191906000526020600020905b8154815290600101906020018083116108fb57829003601f168201915b5050505050905092915050565b6109366109306116f5565b826117b6565b610975576040517f08c379a000000000000000000000000000000000000000000000000000000000815260040161096c90613493565b60405180910390fd5b610980838383611894565b505050565b600b818051602081018201805184825260208301602085012081835280955050505050506000915054906101000a900473ffffffffffffffffffffffffffffffffffffffff1681565b600880546109db906131f0565b80601f0160208091040260200160405190810160405280929190818152602001828054610a07906131f0565b8015610a545780601f10610a2957610100808354040283529160200191610a54565b820191906000526020600020905b815481529060010190602001808311610a3757829003601f168201915b505050505081565b610a7783838360405180602001604052806000815250610d8f565b505050565b6000600b8383604051610a90929190613408565b908152602001604051809103902060009054906101000a900473ffffffffffffffffffffffffffffffffffffffff16905092915050565b600c818051602081018201805184825260208301602085012081835280955050505050506000915090508054610afc906131f0565b80601f0160208091040260200160405190810160405280929190818152602001828054610b28906131f0565b8015610b755780601f10610b4a57610100808354040283529160200191610b75565b820191906000526020600020905b815481529060010190602001808311610b5857829003601f168201915b505050505081565b6000806002600084815260200190815260200160002060009054906101000a900473ffffffffffffffffffffffffffffffffffffffff169050600073ffffffffffffffffffffffffffffffffffffffff168173ffffffffffffffffffffffffffffffffffffffff161415610c26576040517f08c379a0000000000000000000000000000000000000000000000000000000008152600401610c1d90613525565b60405180910390fd5b80915050919050565b60008073ffffffffffffffffffffffffffffffffffffffff168273ffffffffffffffffffffffffffffffffffffffff161415610ca0576040517f08c379a0000000000000000000000000000000000000000000000000000000008152600401610c97906135b7565b60405180910390fd5b600360008373ffffffffffffffffffffffffffffffffffffffff1673ffffffffffffffffffffffffffffffffffffffff168152602001908152602001600020549050919050565b606060018054610cf6906131f0565b80601f0160208091040260200160405190810160405280929190818152602001828054610d22906131f0565b8015610d6f5780601f10610d4457610100808354040283529160200191610d6f565b820191906000526020600020905b815481529060010190602001808311610d5257829003601f168201915b5050505050905090565b610d8b610d846116f5565b8383611afb565b5050565b610da0610d9a6116f5565b836117b6565b610ddf576040517f08c379a0000000000000000000000000000000000000000000000000000000008152600401610dd690613493565b60405180910390fd5b610deb84848484611c68565b50505050565b3373ffffffffffffffffffffffffffffffffffffffff16600b8585604051610e1a929190613408565b908152602001604051809103902060009054906101000a900473ffffffffffffffffffffffffffffffffffffffff1673ffffffffffffffffffffffffffffffffffffffff1614610e6957600080fd5b8181600c8686604051610e7d929190613408565b90815260200160405180910390209190610e989291906128bd565b5050505050565b6060610eaa82611689565b610ee9576040517f08c379a0000000000000000000000000000000000000000000000000000000008152600401610ee090613649565b60405180910390fd5b6000600660008481526020019081526020016000208054610f09906131f0565b80601f0160208091040260200160405190810160405280929190818152602001828054610f35906131f0565b8015610f825780601f10610f5757610100808354040283529160200191610f82565b820191906000526020600020905b815481529060010190602001808311610f6557829003601f168201915b505050505090506000610f93611cc4565b9050600081511415610fa9578192505050610fec565b600082511115610fde578082604051602001610fc692919061369a565b60405160208183030381529060405292505050610fec565b610fe784611cdb565b925050505b919050565b6000600560008473ffffffffffffffffffffffffffffffffffffffff1673ffffffffffffffffffffffffffffffffffffffff16815260200190815260200160002060008373ffffffffffffffffffffffffffffffffffffffff1673ffffffffffffffffffffffffffffffffffffffff16815260200190815260200160002060009054906101000a900460ff16905092915050565b600073ffffffffffffffffffffffffffffffffffffffff16600b83836040516110af929190613408565b908152602001604051809103902060009054906101000a900473ffffffffffffffffffffffffffffffffffffffff1673ffffffffffffffffffffffffffffffffffffffff16146110fe57600080fd5b600061110a83836114e0565b90508034101561114f576040517f08c379a00000000000000000000000000000000000000000000000000000000081526004016111469061370a565b60405180910390fd5b6000838360086040516020016111679392919061380a565b60405160208183030381529060405290506000600982600a6040516020016111919392919061383b565b604051602081830303815290604052905060006111ae6007611d82565b905060006111ff87878080601f016020809104026020016040519081016040528093929190818152602001838380828437600081840152601f19601f82011690508083019250505050505050611d90565b9050600061120c82611f45565b90506113006040518060600160405280603181526020016143726031913989898080601f016020809104026020016040519081016040528093929190818152602001838380828437600081840152601f19601f820116905080830192505050505050506008805461127c906131f0565b80601f01602080910402602001604051908101604052809291908181526020018280546112a8906131f0565b80156112f55780601f106112ca576101008083540402835291602001916112f5565b820191906000526020600020905b8154815290600101906020018083116112d857829003601f168201915b5050505050866120a6565b60006113368661130f87612148565b84604051602001611322939291906139e8565b604051602081830303815290604052612148565b905060008160405160200161134b9190613a91565b604051602081830303815290604052905061137d604051806060016040528060398152602001614339603991396122e0565b6113bc6040518060400160405280600e81526020017f46696e616c20746f6b656e55524900000000000000000000000000000000000081525082611583565b6113dd6040518060600160405280603981526020016143a3603991396122e0565b6113e73386612379565b6113f18582612397565b33600b8b8b604051611404929190613408565b908152602001604051809103902060006101000a81548173ffffffffffffffffffffffffffffffffffffffff021916908373ffffffffffffffffffffffffffffffffffffffff1602179055506114d46040518060400160405280601c81526020017f257320686173207265676973746572656420646f6d61696e2025732100000000815250338c8c8080601f016020809104026020016040519081016040528093929190818152602001838380828437600081840152601f19601f8201169050808301925050505050505061240b565b50505050505050505050565b60008061153084848080601f016020809104026020016040519081016040528093929190818152602001838380828437600081840152601f19601f82011690508083019250505050505050611d90565b90506000811161153f57600080fd5b60038114156115585766b1a2bc2ec5000091505061157d565b600481141561157157666a94d74f43000091505061157d565b662386f26fc100009150505b92915050565b61161b8282604051602401611599929190613ab3565b6040516020818303038152906040527f4b5c4277000000000000000000000000000000000000000000000000000000007bffffffffffffffffffffffffffffffffffffffffffffffffffffffff19166020820180517bffffffffffffffffffffffffffffffffffffffffffffffffffffffff83818316178352505050506124aa565b5050565b60007f01ffc9a7000000000000000000000000000000000000000000000000000000007bffffffffffffffffffffffffffffffffffffffffffffffffffffffff1916827bffffffffffffffffffffffffffffffffffffffffffffffffffffffff1916149050919050565b60008073ffffffffffffffffffffffffffffffffffffffff166002600084815260200190815260200160002060009054906101000a900473ffffffffffffffffffffffffffffffffffffffff1673ffffffffffffffffffffffffffffffffffffffff1614159050919050565b600033905090565b816004600083815260200190815260200160002060006101000a81548173ffffffffffffffffffffffffffffffffffffffff021916908373ffffffffffffffffffffffffffffffffffffffff160217905550808273ffffffffffffffffffffffffffffffffffffffff1661177083610b7d565b73ffffffffffffffffffffffffffffffffffffffff167f8c5be1e5ebec7d5bd14f71427d1e84f3dd0314c0f7b2291e5b200ac8c7c3b92560405160405180910390a45050565b60006117c182611689565b611800576040517f08c379a00000000000000000000000000000000000000000000000000000000081526004016117f790613b5c565b60405180910390fd5b600061180b83610b7d565b90508073ffffffffffffffffffffffffffffffffffffffff168473ffffffffffffffffffffffffffffffffffffffff16148061187a57508373ffffffffffffffffffffffffffffffffffffffff16611862846106d5565b73ffffffffffffffffffffffffffffffffffffffff16145b8061188b575061188a8185610ff1565b5b91505092915050565b8273ffffffffffffffffffffffffffffffffffffffff166118b482610b7d565b73ffffffffffffffffffffffffffffffffffffffff161461190a576040517f08c379a000000000000000000000000000000000000000000000000000000000815260040161190190613bee565b60405180910390fd5b600073ffffffffffffffffffffffffffffffffffffffff168273ffffffffffffffffffffffffffffffffffffffff16141561197a576040517f08c379a000000000000000000000000000000000000000000000000000000000815260040161197190613c80565b60405180910390fd5b6119858383836124d3565b6119906000826116fd565b6001600360008573ffffffffffffffffffffffffffffffffffffffff1673ffffffffffffffffffffffffffffffffffffffff16815260200190815260200160002060008282546119e09190613ccf565b925050819055506001600360008473ffffffffffffffffffffffffffffffffffffffff1673ffffffffffffffffffffffffffffffffffffffff1681526020019081526020016000206000828254611a379190613d03565b92505081905550816002600083815260200190815260200160002060006101000a81548173ffffffffffffffffffffffffffffffffffffffff021916908373ffffffffffffffffffffffffffffffffffffffff160217905550808273ffffffffffffffffffffffffffffffffffffffff168473ffffffffffffffffffffffffffffffffffffffff167fddf252ad1be2c89b69c2b068fc378daa952ba7f163c4a11628f55a4df523b3ef60405160405180910390a4611af68383836124d8565b505050565b8173ffffffffffffffffffffffffffffffffffffffff168373ffffffffffffffffffffffffffffffffffffffff161415611b6a576040517f08c379a0000000000000000000000000000000000000000000000000000000008152600401611b6190613da5565b60405180910390fd5b80600560008573ffffffffffffffffffffffffffffffffffffffff1673ffffffffffffffffffffffffffffffffffffffff16815260200190815260200160002060008473ffffffffffffffffffffffffffffffffffffffff1673ffffffffffffffffffffffffffffffffffffffff16815260200190815260200160002060006101000a81548160ff0219169083151502179055508173ffffffffffffffffffffffffffffffffffffffff168373ffffffffffffffffffffffffffffffffffffffff167f17307eab39ab6107e8899845ad3d59bd9653f200f220920489ca2b5937696c3183604051611c5b9190612a9a565b60405180910390a3505050565b611c73848484611894565b611c7f848484846124dd565b611cbe576040517f08c379a0000000000000000000000000000000000000000000000000000000008152600401611cb590613e37565b60405180910390fd5b50505050565b606060405180602001604052806000815250905090565b6060611ce682611689565b611d25576040517f08c379a0000000000000000000000000000000000000000000000000000000008152600401611d1c90613ec9565b60405180910390fd5b6000611d2f611cc4565b90506000815111611d4f5760405180602001604052806000815250611d7a565b80611d5984611f45565b604051602001611d6a92919061369a565b6040516020818303038152906040525b915050919050565b600081600001549050919050565b60008060008084519050600092505b80821015611f3a576000858381518110611dbc57611dbb613ee9565b5b602001015160f81c60f81b9050608060f81b817effffffffffffffffffffffffffffffffffffffffffffffffffffffffffffff19161015611e0b57600183611e049190613d03565b9250611f26565b60e060f81b817effffffffffffffffffffffffffffffffffffffffffffffffffffffffffffff19161015611e4d57600283611e469190613d03565b9250611f25565b60f060f81b817effffffffffffffffffffffffffffffffffffffffffffffffffffffffffffff19161015611e8f57600383611e889190613d03565b9250611f24565b60f8801b817effffffffffffffffffffffffffffffffffffffffffffffffffffffffffffff19161015611ed057600483611ec99190613d03565b9250611f23565b60fc60f81b817effffffffffffffffffffffffffffffffffffffffffffffffffffffffffffff19161015611f1257600583611f0b9190613d03565b9250611f22565b600683611f1f9190613d03565b92505b5b5b5b5b508280611f3290613f18565b935050611d9f565b829350505050919050565b60606000821415611f8d576040518060400160405280600181526020017f300000000000000000000000000000000000000000000000000000000000000081525090506120a1565b600082905060005b60008214611fbf578080611fa890613f18565b915050600a82611fb89190613f90565b9150611f95565b60008167ffffffffffffffff811115611fdb57611fda612da5565b5b6040519080825280601f01601f19166020018201604052801561200d5781602001600182028036833780820191505090505b5090505b6000851461209a576001826120269190613ccf565b9150600a856120359190613fc1565b60306120419190613d03565b60f81b81838151811061205757612056613ee9565b5b60200101907effffffffffffffffffffffffffffffffffffffffffffffffffffffffffffff1916908160001a905350600a856120939190613f90565b9450612011565b8093505050505b919050565b612142848484846040516024016120c09493929190613ff2565b6040516020818303038152906040527f9fd009f5000000000000000000000000000000000000000000000000000000007bffffffffffffffffffffffffffffffffffffffffffffffffffffffff19166020820180517bffffffffffffffffffffffffffffffffffffffffffffffffffffffff83818316178352505050506124aa565b50505050565b6060600082519050600081141561217157604051806020016040528060008152509150506122db565b600060036002836121829190613d03565b61218c9190613f90565b6004612198919061404c565b905060006020826121a99190613d03565b67ffffffffffffffff8111156121c2576121c1612da5565b5b6040519080825280601f01601f1916602001820160405280156121f45781602001600182028036833780820191505090505b50905060006040518060600160405280604081526020016143dc604091399050600181016020830160005b868110156122985760038101905062ffffff818a015116603f8160121c168401518060081b905060ff603f83600c1c1686015116810190508060081b905060ff603f8360061c1686015116810190508060081b905060ff603f831686015116810190508060e01b9050808452600484019350505061221f565b5060038606600181146122b257600281146122c2576122cd565b613d3d60f01b60028303526122cd565b603d60f81b60018303525b508484525050819450505050505b919050565b612376816040516024016122f49190612b4e565b6040516020818303038152906040527f41304fac000000000000000000000000000000000000000000000000000000007bffffffffffffffffffffffffffffffffffffffffffffffffffffffff19166020820180517bffffffffffffffffffffffffffffffffffffffffffffffffffffffff83818316178352505050506124aa565b50565b612393828260405180602001604052806000815250612665565b5050565b6123a082611689565b6123df576040517f08c379a00000000000000000000000000000000000000000000000000000000081526004016123d690614118565b60405180910390fd5b80600660008481526020019081526020016000209080519060200190612406929190612943565b505050565b6124a583838360405160240161242393929190614138565b6040516020818303038152906040527fe0e9ad4f000000000000000000000000000000000000000000000000000000007bffffffffffffffffffffffffffffffffffffffffffffffffffffffff19166020820180517bffffffffffffffffffffffffffffffffffffffffffffffffffffffff83818316178352505050506124aa565b505050565b60008151905060006a636f6e736f6c652e6c6f679050602083016000808483855afa5050505050565b505050565b505050565b60006124fe8473ffffffffffffffffffffffffffffffffffffffff166126c0565b15612658578373ffffffffffffffffffffffffffffffffffffffff1663150b7a026125276116f5565b8786866040518563ffffffff1660e01b815260040161254994939291906141d2565b6020604051808303816000875af192505050801561258557506040513d601f19601f820116820180604052508101906125829190614233565b60015b612608573d80600081146125b5576040519150601f19603f3d011682016040523d82523d6000602084013e6125ba565b606091505b50600081511415612600576040517f08c379a00000000000000000000000000000000000000000000000000000000081526004016125f790613e37565b60405180910390fd5b805181602001fd5b63150b7a0260e01b7bffffffffffffffffffffffffffffffffffffffffffffffffffffffff1916817bffffffffffffffffffffffffffffffffffffffffffffffffffffffff19161491505061265d565b600190505b949350505050565b61266f83836126e3565b61267c60008484846124dd565b6126bb576040517f08c379a00000000000000000000000000000000000000000000000000000000081526004016126b290613e37565b60405180910390fd5b505050565b6000808273ffffffffffffffffffffffffffffffffffffffff163b119050919050565b600073ffffffffffffffffffffffffffffffffffffffff168273ffffffffffffffffffffffffffffffffffffffff161415612753576040517f08c379a000000000000000000000000000000000000000000000000000000000815260040161274a906142ac565b60405180910390fd5b61275c81611689565b1561279c576040517f08c379a000000000000000000000000000000000000000000000000000000000815260040161279390614318565b60405180910390fd5b6127a8600083836124d3565b6001600360008473ffffffffffffffffffffffffffffffffffffffff1673ffffffffffffffffffffffffffffffffffffffff16815260200190815260200160002060008282546127f89190613d03565b92505081905550816002600083815260200190815260200160002060006101000a81548173ffffffffffffffffffffffffffffffffffffffff021916908373ffffffffffffffffffffffffffffffffffffffff160217905550808273ffffffffffffffffffffffffffffffffffffffff16600073ffffffffffffffffffffffffffffffffffffffff167fddf252ad1be2c89b69c2b068fc378daa952ba7f163c4a11628f55a4df523b3ef60405160405180910390a46128b9600083836124d8565b5050565b8280546128c9906131f0565b90600052602060002090601f0160209004810192826128eb5760008555612932565b82601f1061290457803560ff1916838001178555612932565b82800160010185558215612932579182015b82811115612931578235825591602001919060010190612916565b5b50905061293f91906129c9565b5090565b82805461294f906131f0565b90600052602060002090601f01602090048101928261297157600085556129b8565b82601f1061298a57805160ff19168380011785556129b8565b828001600101855582156129b8579182015b828111156129b757825182559160200191906001019061299c565b5b5090506129c591906129c9565b5090565b5b808211156129e25760008160009055506001016129ca565b5090565b6000604051905090565b600080fd5b600080fd5b60007fffffffff0000000000000000000000000000000000000000000000000000000082169050919050565b612a2f816129fa565b8114612a3a57600080fd5b50565b600081359050612a4c81612a26565b92915050565b600060208284031215612a6857612a676129f0565b5b6000612a7684828501612a3d565b91505092915050565b60008115159050919050565b612a9481612a7f565b82525050565b6000602082019050612aaf6000830184612a8b565b92915050565b600081519050919050565b600082825260208201905092915050565b60005b83811015612aef578082015181840152602081019050612ad4565b83811115612afe576000848401525b50505050565b6000601f19601f8301169050919050565b6000612b2082612ab5565b612b2a8185612ac0565b9350612b3a818560208601612ad1565b612b4381612b04565b840191505092915050565b60006020820190508181036000830152612b688184612b15565b905092915050565b6000819050919050565b612b8381612b70565b8114612b8e57600080fd5b50565b600081359050612ba081612b7a565b92915050565b600060208284031215612bbc57612bbb6129f0565b5b6000612bca84828501612b91565b91505092915050565b600073ffffffffffffffffffffffffffffffffffffffff82169050919050565b6000612bfe82612bd3565b9050919050565b612c0e81612bf3565b82525050565b6000602082019050612c296000830184612c05565b92915050565b612c3881612bf3565b8114612c4357600080fd5b50565b600081359050612c5581612c2f565b92915050565b60008060408385031215612c7257612c716129f0565b5b6000612c8085828601612c46565b9250506020612c9185828601612b91565b9150509250929050565b600080fd5b600080fd5b600080fd5b60008083601f840112612cc057612cbf612c9b565b5b8235905067ffffffffffffffff811115612cdd57612cdc612ca0565b5b602083019150836001820283011115612cf957612cf8612ca5565b5b9250929050565b60008060208385031215612d1757612d166129f0565b5b600083013567ffffffffffffffff811115612d3557612d346129f5565b5b612d4185828601612caa565b92509250509250929050565b600080600060608486031215612d6657612d656129f0565b5b6000612d7486828701612c46565b9350506020612d8586828701612c46565b9250506040612d9686828701612b91565b9150509250925092565b600080fd5b7f4e487b7100000000000000000000000000000000000000000000000000000000600052604160045260246000fd5b612ddd82612b04565b810181811067ffffffffffffffff82111715612dfc57612dfb612da5565b5b80604052505050565b6000612e0f6129e6565b9050612e1b8282612dd4565b919050565b600067ffffffffffffffff821115612e3b57612e3a612da5565b5b612e4482612b04565b9050602081019050919050565b82818337600083830152505050565b6000612e73612e6e84612e20565b612e05565b905082815260208101848484011115612e8f57612e8e612da0565b5b612e9a848285612e51565b509392505050565b600082601f830112612eb757612eb6612c9b565b5b8135612ec7848260208601612e60565b91505092915050565b600060208284031215612ee657612ee56129f0565b5b600082013567ffffffffffffffff811115612f0457612f036129f5565b5b612f1084828501612ea2565b91505092915050565b600060208284031215612f2f57612f2e6129f0565b5b6000612f3d84828501612c46565b91505092915050565b612f4f81612b70565b82525050565b6000602082019050612f6a6000830184612f46565b92915050565b612f7981612a7f565b8114612f8457600080fd5b50565b600081359050612f9681612f70565b92915050565b60008060408385031215612fb357612fb26129f0565b5b6000612fc185828601612c46565b9250506020612fd285828601612f87565b9150509250929050565b600067ffffffffffffffff821115612ff757612ff6612da5565b5b61300082612b04565b9050602081019050919050565b600061302061301b84612fdc565b612e05565b90508281526020810184848401111561303c5761303b612da0565b5b613047848285612e51565b509392505050565b600082601f83011261306457613063612c9b565b5b813561307484826020860161300d565b91505092915050565b60008060008060808587031215613097576130966129f0565b5b60006130a587828801612c46565b94505060206130b687828801612c46565b93505060406130c787828801612b91565b925050606085013567ffffffffffffffff8111156130e8576130e76129f5565b5b6130f48782880161304f565b91505092959194509250565b6000806000806040858703121561311a576131196129f0565b5b600085013567ffffffffffffffff811115613138576131376129f5565b5b61314487828801612caa565b9450945050602085013567ffffffffffffffff811115613167576131666129f5565b5b61317387828801612caa565b925092505092959194509250565b60008060408385031215613198576131976129f0565b5b60006131a685828601612c46565b92505060206131b785828601612c46565b9150509250929050565b7f4e487b7100000000000000000000000000000000000000000000000000000000600052602260045260246000fd5b6000600282049050600182168061320857607f821691505b6020821081141561321c5761321b6131c1565b5b50919050565b7f4552433732313a20617070726f76656420717565727920666f72206e6f6e657860008201527f697374656e7420746f6b656e0000000000000000000000000000000000000000602082015250565b600061327e602c83612ac0565b915061328982613222565b604082019050919050565b600060208201905081810360008301526132ad81613271565b9050919050565b7f4552433732313a20617070726f76616c20746f2063757272656e74206f776e6560008201527f7200000000000000000000000000000000000000000000000000000000000000602082015250565b6000613310602183612ac0565b915061331b826132b4565b604082019050919050565b6000602082019050818103600083015261333f81613303565b9050919050565b7f4552433732313a20617070726f76652063616c6c6572206973206e6f74206f7760008201527f6e6572206e6f7220617070726f76656420666f7220616c6c0000000000000000602082015250565b60006133a2603883612ac0565b91506133ad82613346565b604082019050919050565b600060208201905081810360008301526133d181613395565b9050919050565b600081905092915050565b60006133ef83856133d8565b93506133fc838584612e51565b82840190509392505050565b60006134158284866133e3565b91508190509392505050565b7f4552433732313a207472616e736665722063616c6c6572206973206e6f74206f60008201527f776e6572206e6f7220617070726f766564000000000000000000000000000000602082015250565b600061347d603183612ac0565b915061348882613421565b604082019050919050565b600060208201905081810360008301526134ac81613470565b9050919050565b7f4552433732313a206f776e657220717565727920666f72206e6f6e657869737460008201527f656e7420746f6b656e0000000000000000000000000000000000000000000000602082015250565b600061350f602983612ac0565b915061351a826134b3565b604082019050919050565b6000602082019050818103600083015261353e81613502565b9050919050565b7f4552433732313a2062616c616e636520717565727920666f7220746865207a6560008201527f726f206164647265737300000000000000000000000000000000000000000000602082015250565b60006135a1602a83612ac0565b91506135ac82613545565b604082019050919050565b600060208201905081810360008301526135d081613594565b9050919050565b7f45524337323155524953746f726167653a2055524920717565727920666f722060008201527f6e6f6e6578697374656e7420746f6b656e000000000000000000000000000000602082015250565b6000613633603183612ac0565b915061363e826135d7565b604082019050919050565b6000602082019050818103600083015261366281613626565b9050919050565b600061367482612ab5565b61367e81856133d8565b935061368e818560208601612ad1565b80840191505092915050565b60006136a68285613669565b91506136b28284613669565b91508190509392505050565b7f4e6f7420656e6f75676820544f4b454e20706169640000000000000000000000600082015250565b60006136f4601583612ac0565b91506136ff826136be565b602082019050919050565b60006020820190508181036000830152613723816136e7565b9050919050565b7f2e00000000000000000000000000000000000000000000000000000000000000600082015250565b60006137606001836133d8565b915061376b8261372a565b600182019050919050565b60008190508160005260206000209050919050565b60008154613798816131f0565b6137a281866133d8565b945060018216600081146137bd57600181146137ce57613801565b60ff19831686528186019350613801565b6137d785613776565b60005b838110156137f9578154818901526001820191506020810190506137da565b838801955050505b50505092915050565b60006138178285876133e3565b915061382282613753565b915061382e828461378b565b9150819050949350505050565b6000613847828661378b565b91506138538285613669565b915061385f828461378b565b9150819050949350505050565b7f7b226e616d65223a202200000000000000000000000000000000000000000000600082015250565b60006138a2600a836133d8565b91506138ad8261386c565b600a82019050919050565b7f222c20226465736372697074696f6e223a20224120646f6d61696e206f6e207460008201527f6865204d6574656f72206e616d652073657276696365222c2022696d6167652260208201527f3a2022646174613a696d6167652f7376672b786d6c3b6261736536342c000000604082015250565b600061393a605d836133d8565b9150613945826138b8565b605d82019050919050565b7f222c20226c656e677468223a2200000000000000000000000000000000000000600082015250565b6000613986600d836133d8565b915061399182613950565b600d82019050919050565b7f227d000000000000000000000000000000000000000000000000000000000000600082015250565b60006139d26002836133d8565b91506139dd8261399c565b600282019050919050565b60006139f382613895565b91506139ff8286613669565b9150613a0a8261392d565b9150613a168285613669565b9150613a2182613979565b9150613a2d8284613669565b9150613a38826139c5565b9150819050949350505050565b7f646174613a6170706c69636174696f6e2f6a736f6e3b6261736536342c000000600082015250565b6000613a7b601d836133d8565b9150613a8682613a45565b601d82019050919050565b6000613a9c82613a6e565b9150613aa88284613669565b915081905092915050565b60006040820190508181036000830152613acd8185612b15565b90508181036020830152613ae18184612b15565b90509392505050565b7f4552433732313a206f70657261746f7220717565727920666f72206e6f6e657860008201527f697374656e7420746f6b656e0000000000000000000000000000000000000000602082015250565b6000613b46602c83612ac0565b9150613b5182613aea565b604082019050919050565b60006020820190508181036000830152613b7581613b39565b9050919050565b7f4552433732313a207472616e736665722066726f6d20696e636f72726563742060008201527f6f776e6572000000000000000000000000000000000000000000000000000000602082015250565b6000613bd8602583612ac0565b9150613be382613b7c565b604082019050919050565b60006020820190508181036000830152613c0781613bcb565b9050919050565b7f4552433732313a207472616e7366657220746f20746865207a65726f2061646460008201527f7265737300000000000000000000000000000000000000000000000000000000602082015250565b6000613c6a602483612ac0565b9150613c7582613c0e565b604082019050919050565b60006020820190508181036000830152613c9981613c5d565b9050919050565b7f4e487b7100000000000000000000000000000000000000000000000000000000600052601160045260246000fd5b6000613cda82612b70565b9150613ce583612b70565b925082821015613cf857613cf7613ca0565b5b828203905092915050565b6000613d0e82612b70565b9150613d1983612b70565b9250827fffffffffffffffffffffffffffffffffffffffffffffffffffffffffffffffff03821115613d4e57613d4d613ca0565b5b828201905092915050565b7f4552433732313a20617070726f766520746f2063616c6c657200000000000000600082015250565b6000613d8f601983612ac0565b9150613d9a82613d59565b602082019050919050565b60006020820190508181036000830152613dbe81613d82565b9050919050565b7f4552433732313a207472616e7366657220746f206e6f6e20455243373231526560008201527f63656976657220696d706c656d656e7465720000000000000000000000000000602082015250565b6000613e21603283612ac0565b9150613e2c82613dc5565b604082019050919050565b60006020820190508181036000830152613e5081613e14565b9050919050565b7f4552433732314d657461646174613a2055524920717565727920666f72206e6f60008201527f6e6578697374656e7420746f6b656e0000000000000000000000000000000000602082015250565b6000613eb3602f83612ac0565b9150613ebe82613e57565b604082019050919050565b60006020820190508181036000830152613ee281613ea6565b9050919050565b7f4e487b7100000000000000000000000000000000000000000000000000000000600052603260045260246000fd5b6000613f2382612b70565b91507fffffffffffffffffffffffffffffffffffffffffffffffffffffffffffffffff821415613f5657613f55613ca0565b5b600182019050919050565b7f4e487b7100000000000000000000000000000000000000000000000000000000600052601260045260246000fd5b6000613f9b82612b70565b9150613fa683612b70565b925082613fb657613fb5613f61565b5b828204905092915050565b6000613fcc82612b70565b9150613fd783612b70565b925082613fe757613fe6613f61565b5b828206905092915050565b6000608082019050818103600083015261400c8187612b15565b905081810360208301526140208186612b15565b905081810360408301526140348185612b15565b90506140436060830184612f46565b95945050505050565b600061405782612b70565b915061406283612b70565b9250817fffffffffffffffffffffffffffffffffffffffffffffffffffffffffffffffff048311821515161561409b5761409a613ca0565b5b828202905092915050565b7f45524337323155524953746f726167653a2055524920736574206f66206e6f6e60008201527f6578697374656e7420746f6b656e000000000000000000000000000000000000602082015250565b6000614102602e83612ac0565b915061410d826140a6565b604082019050919050565b60006020820190508181036000830152614131816140f5565b9050919050565b600060608201905081810360008301526141528186612b15565b90506141616020830185612c05565b81810360408301526141738184612b15565b9050949350505050565b600081519050919050565b600082825260208201905092915050565b60006141a48261417d565b6141ae8185614188565b93506141be818560208601612ad1565b6141c781612b04565b840191505092915050565b60006080820190506141e76000830187612c05565b6141f46020830186612c05565b6142016040830185612f46565b81810360608301526142138184614199565b905095945050505050565b60008151905061422d81612a26565b92915050565b600060208284031215614249576142486129f0565b5b60006142578482850161421e565b91505092915050565b7f4552433732313a206d696e7420746f20746865207a65726f2061646472657373600082015250565b6000614296602083612ac0565b91506142a182614260565b602082019050919050565b600060208201905081810360008301526142c581614289565b9050919050565b7f4552433732313a20746f6b656e20616c7265616479206d696e74656400000000600082015250565b6000614302601c83612ac0565b915061430d826142cc565b602082019050919050565b60006020820190508181036000830152614331816142f5565b905091905056fe0a2d2d2d2d2d2d2d2d2d2d2d2d2d2d2d2d2d2d2d2d2d2d2d2d2d2d2d2d2d2d2d2d2d2d2d2d2d2d2d2d2d2d2d2d2d2d2d2d2d2d2d2d2d2d2d2d5265676973746572696e672025732e2573206f6e2074686520636f6e7472616374207769746820746f6b656e49442025642d2d2d2d2d2d2d2d2d2d2d2d2d2d2d2d2d2d2d2d2d2d2d2d2d2d2d2d2d2d2d2d2d2d2d2d2d2d2d2d2d2d2d2d2d2d2d2d2d2d2d2d2d2d2d2d0a4142434445464748494a4b4c4d4e4f505152535455565758595a6162636465666768696a6b6c6d6e6f707172737475767778797a303132333435363738392b2fa26469706673582212202d4fd75807e9c54c61704914fef93ab5a884e0a093833f513676bb270361564164736f6c634300080a00333c73766720786d6c6e733d22687474703a2f2f7777772e77332e6f72672f323030302f737667222077696474683d2232373022206865696768743d22323730222066696c6c3d226e6f6e65223e3c706174682066696c6c3d2275726c282361292220643d224d302030683237307632373048307a222f3e3c646566733e3c66696c7465722069643d22622220636f6c6f722d696e746572706f6c6174696f6e2d66696c746572733d2273524742222066696c746572556e6974733d227573657253706163654f6e55736522206865696768743d22323730222077696474683d22323730223e3c666544726f70536861646f772064783d2230222064793d22312220737464446576696174696f6e3d22322220666c6f6f642d6f7061636974793d222e323235222077696474683d223230302522206865696768743d2232303025222f3e3c2f66696c7465723e3c2f646566733e3c7061746820643d224d32342e383420312e36313541322e323520322e3235203020302031203237203068313861322e323520322e323520302030203120322e31333320322e3936314c33392e3132332032374835362e323561322e323520322e323520302030203120312e37373820332e3633326c2d33312e352034302e3561322e323520322e32352030203020312d332e3932392d322e3034346c382e3130352d32362e3333384831352e373561322e323520322e32352030203020312d322e31362d322e3838356c31312e32352d33382e32357a222066696c6c3d2223464646222f3e3c646566733e3c6c696e6561724772616469656e742069643d2261222078313d2230222079313d2230222078323d22323730222079323d2232373022206772616469656e74556e6974733d227573657253706163654f6e557365223e3c73746f702073746f702d636f6c6f723d2223333634663939222f3e3c73746f70206f66667365743d2231222073746f702d636f6c6f723d2223303130653335222073746f702d6f7061636974793d222e3939222f3e3c2f6c696e6561724772616469656e743e3c2f646566733e3c7465787420783d2233322e352220793d223233312220666f6e742d73697a653d223237222066696c6c3d2223313663346633222066696c7465723d2275726c282362292220666f6e742d66616d696c793d22506c7573204a616b617274612053616e732c44656a6156752053616e732c4e6f746f20436f6c6f7220456d6f6a692c4170706c6520436f6c6f7220456d6f6a692c73616e732d73657269662220666f6e742d7765696768743d22626f6c64223e",
  "linkReferences": {},
  "deployedLinkReferences": {}
}